:020000040800F2
:10000000C016002049CC00086DBE000899BE00084B
:100010009BBE00089DBE00089FBE000800000000B7
:10002000000000000000000000000000A3BE000867
:10003000A1BE000800000000A5BE0008A7BE000881
:1000400007BF000809BF00080BBF00080DBF00086C
:100050000FBF000811BF000855BF00085FBF0008B0
:1000600069BF000873BF00087DBF00087FBF00089C
:1000700081BF000883BF000885BF000887BF000854
:1000800089BF00088BBF00088DBF00088FBF000824
:1000900091BF000893BF000895BF000897BF0008F4
:1000A00099BF00089BBF00089DBF00089FBF0008C4
:1000B000A1BF0008F3BF000801C0000803C000088A
:1000C00005C0000807C0000809C000080BC00008F0
:1000D0000DC000080FC00008E1C00008BDC1000845
:1000E00071C2000873C2000875C2000877C2000818
:1000F00079C200087BC200087DC200087FC20008E8
:1001000081C2000883C2000885C2000887C20008B7
:1001100089C20008A5C2000835C3000837C300081B
:1001200039C300083BC300083DC300083FC30008B3
:1001300000B587B00220ADF8000014208DF8030050
:1001400003208DF8020000A9DFF8040904F0FCFA8E
:100150000121052004F0A8FC01215FF4003004F027
:10016000B3FC0420ADF8000003208DF80200182035
:100170008DF8030000A9DFF8D80804F0E5FA08209C
:10018000ADF8000004208DF8030000A9DFF8C008D6
:1001900004F0DAFA4FF4964002904FF48050ADF834
:1001A0000C000020ADF80E000020ADF8100000207B
:1001B000ADF814000C20ADF8120002A9DFF8180DFC
:1001C00004F0FCFC012240F22551DFF80C0D04F094
:1001D00051FD0121DFF8000D04F03EFD26208DF8D1
:1001E000040001208DF8050000208DF80600012094
:1001F0008DF8070001A804F0B2FD07B000BD80B57E
:1002000001F028FC01F0E0FE01BD00200021DFF834
:100210004428126852F00202DFF838381A602022AF
:10022000C9B2DFF83438CA54491C2822C9B2DFF8F1
:100230002838CA54491C491C0122C9B2DFF81838B1
:10024000CA54491CCA22C9B2DFF80C38CA54491C26
:10025000DFF8082892F84F20C9B2DFF8FC37CA54FB
:10026000491CDFF8F82792F85020C9B2DFF8E837C8
:10027000CA54491C4A1CDFF8E0379A70012205E095
:10028000D2B2DFF8D437D35C1818521CD2B2C9B23C
:100290008A42F5D390F05500C9B2DFF8BC278854E4
:1002A000491C2920C9B2DFF8B0278854491CDFF85F
:1002B000B007006850F00100DFF8A42710600020AC
:1002C000DFF8A0271070DFF88C0C01707047F8B5CC
:1002D00006000F0000240025DFF87807006850F0C2
:1002E0000200DFF8701708606D1C16F11000EDB207
:1002F000DFF8641768546D1CF80735D5DFF8740D06
:100300000078002808D0DFF854070078EDB2DFF855
:10031000481768546D1C07E0DFF83C0C0078EDB21C
:10032000DFF8341768546D1CDFF8300C0078EDB23C
:10033000DFF8241768546D1CDFF8240C0078EDB248
:10034000DFF8141768546D1C002000F034F9EDB28A
:10035000DFF8041768546D1C002000F07CF9EDB242
:10036000DFF8F41668546D1CB80735D5DFF8040DB6
:100370004078002808D0DFF8E4060078EDB2DFF816
:10038000D81668546D1C07E0DFF8CC0B0078EDB28E
:10039000DFF8C41668546D1CDFF8C00B4078EDB26E
:1003A000DFF8B41668546D1CDFF8B40B4078EDB27A
:1003B000DFF8A41668546D1C012000F0FCF8EDB2C3
:1003C000DFF8941668546D1C012000F044F9EDB27A
:1003D000DFF8841668546D1C780735D5DFF8940C67
:1003E0008078002808D0DFF874068078EDB2DFF856
:1003F000681668546D1C07E0DFF85C0B8078EDB27E
:10040000DFF8541668546D1CDFF8500B8078EDB29D
:10041000DFF8441668546D1CDFF8440B8078EDB2A9
:10042000DFF8341668546D1C022000F0C4F8EDB2F9
:10043000DFF8241668546D1C022000F00CF9EDB2B0
:10044000DFF8141668546D1C380735D5DFF8240C16
:10045000C078002808D0DFF804060079EDB2DFF894
:10046000F81568546D1C07E0DFF8EC0AC078EDB2AF
:10047000DFF8E41568546D1CDFF8E00AC078EDB2CF
:10048000DFF8D41568546D1CDFF8D40AC078EDB2DB
:10049000DFF8C41568546D1C032000F08CF8EDB231
:1004A000DFF8B41568546D1C032000F0D4F8EDB2E9
:1004B000DFF8A41568546D1CDFF8A005007FEDB2CD
:1004C000DFF8941568546D1CDFF89005407FEDB29D
:1004D000DFF8841568546D1CDFF88005807FEDB26D
:1004E000DFF8741568546D1CF6B2DFF88C0B305CC5
:1004F000EDB2DFF8641568546D1CDFF83C0C007831
:10050000002809D1F6B2DFF8340C305CEDB2DFF828
:10051000481568546D1C05E00020EDB2DFF8381571
:1005200068546D1CF6B2DFF8180C305CEDB2DFF8E1
:10053000281568546D1C012005E0C0B2DFF81815BD
:10054000415C0C19401CC0B2EDB2A842F5D394F046
:100550005504EDB2DFF800052C546D1CDFF8F804EB
:100560000570DFF8FC04006850F00100DFF8F014BB
:1005700008600020DFF8EC140870DFF8D809057077
:10058000DFF8C00B0078401CDFF8B81B0870C0B261
:1005900004280BDB0520DFF8AC1B0870FF20DFF818
:1005A000B8190870FF20DFF8B41908701E20DFF8B2
:1005B000A01D0880F1BD0020DFF8A01491F82810DC
:1005C000C90701D550F00100DFF8901491F8281008
:1005D000890701D550F00200DFF8801491F84A1025
:1005E00002291BD1DFF8741491F85310002903D0AD
:1005F000022910D00AD31AE050F04000DFF85C1452
:10060000097D490701D550F0040010E010F0BF004B
:1006100050F004000BE010F0BF0008E0DFF83C14DD
:10062000097D490701D550F0040010F0BF0050F0DB
:100630001000DFF8281491F82810C90601D550F0F1
:100640002000DFF8181491F82910090701D550F09F
:100650008000C0B270470021DFF80024127C12F045
:1006600003021100DFF8F423127CD20601D551F009
:100670000401DFF8E823127C520701D551F008018C
:10068000DFF8D823127C920601D551F01001DFF873
:10069000CC23127E120701D551F02001DFF8BC23D4
:1006A000127D120701D551F04001C0B2DFF8C42914
:1006B000805C012801D151F080010800C0B2704770
:1006C000F8B506000F0000240025DFF88803006855
:1006D00050F00200DFF87C1308602020EDB2DFF854
:1006E000781368546D1C2820EDB2DFF86C13685441
:1006F0006D1C6D1CEDB2DFF860032F546D1C16F1FC
:100700002000EDB2DFF8501368546D1CF8072DD5AA
:10071000F6B2D248301890F83200EDB2CE496854A3
:100720006D1CF6B2DFF82C0C10F82600EDB2CA49A9
:1007300068546D1CF6B2DFF81C0C10EB8600407894
:10074000EDB2C54968546D1CF6B2DFF8080C10EB29
:1007500086008078EDB2C04968546D1C3000C0B28C
:1007600000F00AF9EDB2BC4968546D1CB8072DD5EC
:10077000F6B2BA48301890F83200EDB2B649685473
:100780006D1CF6B2DFF8CC0B10F82600EDB2B249C2
:1007900068546D1CF6B2DFF8BC0B10EB8600407895
:1007A000EDB2AD4968546D1CF6B2DFF8A80B10EB42
:1007B00086008078EDB2A84968546D1C3000C0B244
:1007C00000F0DAF8EDB2A44968546D1C78072DD515
:1007D000F6B2A248301890F83200EDB29E49685443
:1007E0006D1CF6B2DFF86C0B10F82600EDB29A49DA
:1007F00068546D1CF6B2DFF85C0B10EB8600407895
:10080000EDB2954968546D1CF6B2DFF8480B10EB59
:1008100086008078EDB2904968546D1C3000C0B2FB
:1008200000F0AAF8EDB28C4968546D1C38072DD53C
:10083000F6B28A48301890F83200EDB28649685412
:100840006D1CF6B2DFF80C0B10F82600EDB28249F1
:1008500068546D1CF6B2DFF8FC0A10EB8600407895
:10086000EDB27D4968546D1CF6B2DFF8E80A10EB72
:1008700086008078EDB2784968546D1C3000C0B2B3
:1008800000F07AF8EDB2744968546D1C00F09FF8DE
:10089000EDB2714968546D1C704890F85A00EDB281
:1008A0006D4968546D1CF6B2DFF8C807305C00284B
:1008B00006D06A480078EDB2674968546D1C06E0BE
:1008C000DFF894060078EDB2634968546D1C634804
:1008D00090F85D00EDB2604968546D1C5F4890F877
:1008E0005E00EDB25C4968546D1C5C48007FEDB25F
:1008F000594968546D1CDFF880070078EDB25649FD
:1009000068546D1C012004E0C0B25349415C0C19CD
:10091000401CC0B2EDB2A842F6D394F05504EDB23B
:100920004D482C546D1C4C4805704D48006850F0E3
:1009300001004B49086000204A490870DFF814069E
:100940000570DFF800080078401CDFF8F817087021
:10095000C0B204280BDB0520DFF8E8170870FF2081
:10096000DFF8F4150870FF20DFF8F0150870262076
:10097000DFF8DC190880F1BD0021C0B2374A8218C7
:10098000127C12F003021100C0B2344A8218127CA9
:10099000520701D551F00401C0B2304A8218127DCD
:1009A000520701D551F00801C0B22C4A821892F8C2
:1009B0002420120701D551F01001C0B2274A801837
:1009C00090F8240051EA40110800C0B2704700209E
:1009D000224991F82810C90701D550F001001F499C
:1009E00091F82810890701D550F002001B4991F8B1
:1009F0002D103E22114204D1DFF8101B0978002986
:100A000001D050F00400154991F82810490701D58C
:100A100050F00800114991F82810090701D550F04D
:100A200010000E4991F82810C90601D550F0200099
:100A30000A4991F82810890601D550F0400007496D
:100A400091F82810490601D550F08000C0B27047D7
:100A5000000801400C080140300100200400002083
:100A6000EC05002094060020F8B506000F000024D5
:100A70000025DFF89C0A006850F00200DFF8901AA9
:100A800008606D1C16F13000EDB2DFF8201C6854D0
:100A90006D1CF80740F1B3800020EDB2DFF80C1CAC
:100AA0006854DFF8700A0078002802D0012848D086
:100AB0008FE0DFF8E00D90F82D00800709D5EDB24A
:100AC000DFF8E80B285C50F00100EDB2DFF8DC1B2A
:100AD0006854DFF8C00D90F82D00400709D5EDB23D
:100AE000DFF8C80B285C50F00200EDB2DFF8BC1B49
:100AF0006854DFF8A00D90F82D00000709D5EDB27D
:100B0000DFF8A80B285C50F00400EDB2DFF89C1B66
:100B10006854DFF8800D90F82D001E21084210D196
:100B2000DFF8700D90F82E000721084209D1EDB2D0
:100B3000DFF8780B285C50F00800EDB2DFF86C1B92
:100B40006854DFF8500D90F82D00800709D5EDB2FC
:100B5000DFF8580B285C50F00100EDB2DFF84C1BB9
:100B60006854DFF8300D90F82D00400709D5EDB23C
:100B7000DFF8380B285C50F00200EDB2DFF82C1BD8
:100B80006854DFF8100D90F82D00000709D5EDB27C
:100B9000DFF8180B285C50F00400EDB2DFF80C1BF6
:100BA0006854DFF8F00C90F82D000E21084210D1A7
:100BB000DFF8E00C90F82E000721084209D1EDB2D1
:100BC000DFF8E80A285C50F00800EDB2DFF8DC1A24
:100BD00068546D1CF6B20320DFF8D41A00FB06102F
:100BE0000078EDB2DFF8C41A68546D1C3000C0B252
:100BF00000F074F9EDB2DFF8B41A68546D1CB80750
:100C000040F184800020EDB2DFF8A01A6854DFF8CC
:100C100004090078002802D0012831D060E0DFF814
:100C2000740C90F82E00C00709D5EDB2DFF87C0AED
:100C3000285C50F00100EDB2DFF8701A6854DFF85C
:100C4000540C90F82E00800709D5EDB2DFF85C0A4D
:100C5000285C50F00200EDB2DFF8501A6854DFF85B
:100C6000340C90F82E00400709D5EDB2DFF83C0AAD
:100C7000285C50F00400EDB2DFF8301A68542FE021
:100C8000DFF8100C90F82E00C00709D5EDB2DFF8A0
:100C90001C0A285C50F00100EDB2DFF8101A68540D
:100CA000DFF8F00B90F82E00800709D5EDB2DFF8E1
:100CB000FC09285C50F00200EDB2DFF8F01968542E
:100CC000DFF8D00B90F82E00400709D5EDB2DFF821
:100CD000DC09285C50F00400EDB2DFF8D01968544C
:100CE0006D1CF6B20320DFF8C81900FB061000786F
:100CF000EDB2DFF8B81968546D1C3000C0B200F0D6
:100D0000EDF8EDB2DFF8A41968546D1C780733D5FF
:100D10000020EDB2DFF894196854DFF8F807007886
:100D2000002802D0012811D010E0DFF8680B90F8FD
:100D30002D00C00609D5EDB2DFF87009285C50F02F
:100D40000100EDB2DFF864196854FFE76D1CF6B2DC
:100D50000320DFF85C1900FB06100078EDB2DFF825
:100D60004C1968546D1C3000C0B200F0B7F8EDB2F9
:100D7000DFF8381968546D1C38074CD50020EDB2E7
:100D8000DFF828196854DFF8900B007800282CD180
:100D9000DFF8880B0078C00709D5EDB2DFF80C0941
:100DA000285C50F00100EDB2DFF800196854DFF85C
:100DB0006C0B0078800709D5EDB2DFF8F008285CED
:100DC00050F00200EDB2DFF8E4186854DFF84C0B85
:100DD0000078400709D5EDB2DFF8D008285C50F064
:100DE0000400EDB2DFF8C41868546D1CF6B203209D
:100DF000DFF8BC1800FB06100078EDB2DFF8AC1885
:100E000068546D1C3000C0B200F068F8EDB2DFF835
:100E10009C1868546D1CF80615D56D1CF6B203209D
:100E2000DFF88C1800FB06100078EDB2DFF87C18B4
:100E300068546D1C3000C0B200F050F8EDB2DFF81D
:100E40006C1868546D1C780615D56D1CF6B203201D
:100E5000DFF85C1800FB06100078EDB2DFF84C18E4
:100E600068546D1C3000C0B200F038F8EDB2DFF805
:100E70003C1868546D1CDFF89C060078EDB2DFF872
:100E80002C1868546D1C012005E0C0B2DFF81C1856
:100E9000415C0C19401CC0B2EDB2A842F5D394F0ED
:100EA0005504EDB2DFF804082C546D1CDFF8FC0784
:100EB0000570DFF8600B006850F00100DFF8541B8C
:100EC00008600020DFF8501B0870224805700020E1
:100ED000DFF87C140880F1BD004400400020DFF8FA
:100EE000B41991F82810C90701D550F00100DFF8B6
:100EF000A41991F82810890701D550F00200DFF8F5
:100F0000941991F82810490701D550F00800DFF82E
:100F1000841991F82810090701D550F01000DFF866
:100F2000741991F82810C90601D550F02000DFF897
:100F3000641991F82810890601D550F04000DFF8B7
:100F4000541991F82810490601D550F08000C0B21C
:100F500070470000950600209405002098050020A9
:100F6000A0050020F8B506000F0000240025DFF8DA
:100F7000A005006850F00200DFF8941508606D1CB1
:100F800016F16000EDB2DFF8241768546D1CF80705
:100F900011D5F6B2DFF8B80A305CEDB2DFF80C1705
:100FA00068546D1C3000C0B200F049F8EDB2DFF8B3
:100FB000FC1668546D1CB80711D5F6B2DFF8900A1C
:100FC000305CEDB2DFF8E41668546D1C3000C0B23E
:100FD00000F035F8EDB2DFF8D41668546D1CDFF878
:100FE000380B0078EDB2DFF8C41668546D1C012090
:100FF00005E0C0B2DFF8B416415C0C19401CC0B269
:10100000EDB2A842F5D394F05504EDB2DFF89C069A
:101010002C546D1CDFF894060570DFF8F8090068A1
:1010200050F00100DFF8EC1908600020DFF8E81943
:101030000870454805700020C5490880F1BD0020B2
:10104000DFF8D81A91F82810C90701D550F001002F
:10105000DFF8C81A91F82810490701D550F0200090
:10106000DFF8B81A91F82810090701D550F01000E0
:10107000C0B27047D0050020640500200020002188
:10108000DFF88C24126852F00202DFF884341A6010
:10109000491C0122C9B2DFF81436CA54491C402247
:1010A000C9B2DFF80836CA54491CDFF86024127848
:1010B000C9B2DFF8F835CA54491CDFF85024527819
:1010C000C9B2DFF8E835CA54491CDFF840249278E9
:1010D000C9B2DFF8D835CA54491CDFF83024D278B9
:1010E000C9B2DFF8C835CA54491C012205E0D2B2A2
:1010F000DFF8B835D35C1818521CD2B2C9B28A4294
:10110000F5D390F05500C9B2DFF8A0258854491CEA
:10111000DFF898050170DFF8FC08006850F0010066
:10112000DFF8F02810600020DFF8EC281070DFF8FE
:10113000F0090170704700008D0600207C06002039
:10114000BC0500209C0500209506002010B400205E
:1011500000210022DFF8B8331B6853F00203DFF8E8
:10116000B04323602023C9B2DFF840450B55491C2A
:101170002823C9B2DFF834450B55491C491C01230B
:10118000C9B2DFF828450B55491C7023C9B2DFF8F6
:101190001C450B55491CDFF8FC3693F828309B079B
:1011A00001D552F00102DFF87C391B78002B01D009
:1011B00052F00202DFF870391B78DB0701D552F0DC
:1011C0000402DFF8D03693F824301B0701D552F023
:1011D0000802DFF8C03693F828305B0701D552F0DB
:1011E0001002DFF8B03693F828301B0701D552F013
:1011F0002002DFF8A03693F824305B0601D552F0C8
:101200004002C9B2DFF8A434CA54491CDFF884266E
:1012100092F8242012F00702C9B2DFF89034CA54C1
:10122000491CDFF808291278C9B2DFF88034CA54A3
:10123000491CDFF8602692F84F20C9B2DFF86C3401
:10124000CA54491CDFF84C2692F85020C9B2DFF886
:101250005C34CA54491C4A1CDFF850349A7001228D
:1012600005E0D2B2DFF84434D35C1818521CD2B275
:10127000C9B28A42F5D390F05500C9B2DFF82C24E8
:101280008854491C2920C9B2DFF820248854491CFD
:10129000DFF88007006850F00100DFF87827106061
:1012A0000020DFF874271070DFF87408017010BC9C
:1012B000704738B5002400259548006850F00200BA
:1012C000934908606D1C5020EDB2DFF8E0136854BC
:1012D0006D1C0020EDB2DFF8D41368546D1CDFF8EC
:1012E00050080078EDB2DFF8C41368546D1C00207C
:1012F000FFF7F4FDEDB2DFF8B41368546D1C012064
:1013000005E0C0B2DFF8A413415C0C19401CC0B268
:10131000EDB2A842F5D394F05504EDB2DFF88C039A
:101320002C546D1CDFF884030570DFF8E8060068B4
:1013300050F00100DFF8DC1608600020DFF8D81656
:101340000870DFF8DC07057000200149088031BD16
:101350005E060020F004002010B4002000210022CE
:101360006B4B1B6853F00203694C2360491CFF233D
:10137000C9B2CE4C0B55491CFF23C9B2CB4C0B55FF
:10138000491CDFF8103593F82830DB0701D552F0FF
:101390000102DFF8003593F828309B0701D552F0A1
:1013A0000202DFF8F03493F82830DB0601D552F062
:1013B0000402DFF8E0341B7D5B0701D552F0080220
:1013C000DFF8D03493F828305B0701D552F01002D3
:1013D000DFF8C03493F828301B0701D552F0200203
:1013E000DFF8B03493F852301B0701D552F0800279
:1013F000C9B2AE4BCA54491CDFF8982492F8522067
:10140000C9B2AA4BCA54491C012204E0D2B2A74B6C
:10141000D35C1818521CD2B2C9B28A42F6D390F0EB
:101420005500C9B2A14A8854491CA0480170DFF890
:10143000E405006850F00100DFF8D82510600020B6
:10144000DFF8D4251070DFF8D80601700020DFF82F
:10145000CC1C088010BC704710B4002100222C4B1B
:101460001B6853F002032A4C2360521CB0F1800326
:10147000D2B28E4C1355521CC0B20323DFF8444B3A
:1014800003FB00431B78D2B2884C1355521CC0B2E8
:101490000323DFF8304B03FB00435B78D2B2834C6D
:1014A0001355521CC0B20323DFF8184B03FB004056
:1014B0008078D2B27D4BD054521C012004E0C0B2DF
:1014C0007A4BC35C5918401CC0B2D2B29042F6D3DA
:1014D00091F05501D2B275481154521C73480270F4
:1014E000DFF83005006850F00100DFF828150860CB
:1014F0000020DFF824150870DFF8240602700020B1
:10150000DFF8181C088010BC7047000000050020A0
:101510000C0801408A06002010B400200022DFF8E9
:10152000003C1B6853F00203DFF8F44B2360521CAD
:101530009023D2B25D4C1355521CC90740F18E80E6
:101540000021D2B2594BD154DFF8D0130978C90722
:1015500008D5D2B25549515C51F08001D2B2534BFB
:10156000D15407E0D2B25149515C11F07F01D2B29F
:101570004E4BD154DFF8A4130978890708D5D2B2AD
:101580004A49515C51F04001D2B2484BD15407E076
:10159000D2B24649515C11F0BF01D2B2434BD15493
:1015A000DFF878130978490708D5D2B23F49515C72
:1015B00051F02001D2B23D4BD15407E0D2B23B49A9
:1015C000515C11F0DF01D2B2384BD154D349497884
:1015D000C90708D5D2B23549515C51F01001D2B2D9
:1015E000324BD15407E0D2B23049515C11F0EF01D7
:1015F000D2B22E4BD154C9494978890708D5D2B205
:101600002A49515C51F00801D2B2284BD15407E06D
:10161000D2B22649515C11F0F701D2B2234BD1541A
:10162000BE494978490708D5D2B22049515C51F0EA
:101630000401D2B21D4BD15407E0D2B21B49515C18
:1016400011F0FB01D2B2194BD154D2B21749515CFF
:1016500011F0FC01D2B2154BD154521C012104E00F
:10166000C9B2124BCB5C1818491CC9B2D2B2914214
:10167000F6D390F05500D2B20C495054521C0B488E
:101680000270DFF89003006850F00100DFF8841367
:1016900008600020DFF880130870DFF8840402700F
:1016A0000020DFF8781A088010BC70473001002055
:1016B0009804002038B500240025DFF8640A00688B
:1016C00050F00200DFF8581A08606D1C7020EDB26F
:1016D000DFF8501A68546D1C00F0B1F8EDB2DFF875
:1016E000441A68546D1C00F02DF9EDB2DFF8341A7D
:1016F00068546D1C00F092F9EDB2DFF8281A6854B6
:101700006D1CDFF8240A0078EDB2DFF8181A68546F
:101710006D1C6048007C000717D5002000F0BCF865
:10172000EDB2DFF8001A68546D1C002000F0E3F8F9
:10173000EDB2DFF8F01968546D1C002000F0F0F8ED
:10174000EDB2DFF8E01968546D1C5248407C000788
:1017500017D5012000F0A0F8EDB2DFF8C8196854E1
:101760006D1C012000F0C7F8EDB2DFF8B81968541D
:101770006D1C012000F0D4F8EDB2DFF8A819685410
:101780006D1C4448807C000717D5022000F084F8C7
:10179000EDB2DFF8901968546D1C022000F0ABF830
:1017A000EDB2DFF8801968546D1C022000F0B8F823
:1017B000EDB2DFF8701968546D1C3648C07C000724
:1017C00017D5032000F068F8EDB2DFF85819685417
:1017D0006D1C032000F08FF8EDB2DFF84819685453
:1017E0006D1C032000F09CF8EDB2DFF83819685446
:1017F0006D1C012005E0C0B2DFF82819415C0C190E
:10180000401CC0B2EDB2A842F5D394F05504EDB23D
:10181000DFF810092C546D1CDFF8080905707D48AD
:10182000006850F001007B49086000207A49087088
:10183000BB4805700020DFF8E418088031BD0020A7
:10184000144991F82810890701D550F00100114979
:1018500091F82810490701D550F002000D4991F880
:101860002810090701D550F004000A4991F82A1000
:10187000F122114201D050F00800DFF8B0180978C9
:10188000002902D150F0100001E050F02000C0B259
:1018900070470000040000200021C0B29F4A821857
:1018A000127C520701D551F00101C0B29B4A821847
:1018B000127C12F00302D2B2012A04D00BD3032A05
:1018C00007D003D307E051F0020104E051F0040116
:1018D00001E051F00601C0B2904A8018007D400737
:1018E00002D551F0100101E011F0EF0151F00801B3
:1018F0000800C0B270470021C0B2884A825C520022
:101900001100C0B2854A805C000601D551F001018A
:101910000800C0B270470000A1060020300500207A
:101920000021C0B27D4A8218127952001100C0B263
:101930007A4A80180079000601D551F001010800AB
:10194000C0B270470020DFF8E4170978002902D000
:10195000012932D05BE0714991F82D10890701D53A
:1019600050F001006D4991F82D10490701D550F054
:1019700002006A4991F82D10090701D550F00400C2
:10198000664991F82E10C90701D550F00800634947
:1019900091F82E10890701D550F010005F4991F899
:1019A0002E10490701D550F020005C4991F82D1008
:1019B000C90601D550F0400029E0584991F82D1092
:1019C000890701D550F00100544991F82D104907BD
:1019D00001D550F00200514991F82D10090701D5A9
:1019E00050F004004D4991F82E10C90701D550F070
:1019F00008004A4991F82E10890701D550F01000CF
:101A0000464991F82E10490701D550F02000C0B288
:101A100070470000EC050020940600200020DFF84D
:101A20000C170978002910D1DFF804170978C907C5
:101A300001D550F00100DFF8F8160978890701D5C3
:101A400050F0020050F0F00000E0FF20C0B27047FC
:101A5000CC05002080B5DFF8DC060078C00759D53A
:101A6000DFF8B8060088401CDFF8B016088080B2A6
:101A70002E284FDB40F2E930DFF8A0160880402125
:101A8000DFF8B40603F01DF9002843D0DFF8AC06F8
:101A90000078002812D1DFF8A4060078DFF8841659
:101AA000405C50F48070DFF898160880DFF88C06F0
:101AB0000078401CDFF8841608702BE0DFF87C0605
:101AC000007817490978884210D2DFF8700600784C
:101AD000DFF85016405CDFF868160880DFF85C0617
:101AE0000078401CDFF85416087013E0DFF8300669
:101AF000006830F00200DFF828160860DFF83406CE
:101B0000006840084000DFF82C1608600B20DFF862
:101B10003416088001BD00009C060020040000204F
:101B20009506002082060020F0050020D405002044
:101B3000D805002080B5DFF8FC050068C0F3C000C0
:101B4000002800F03B82DFF8EC05006830F0080068
:101B5000DFF8E0150860DFF8F0050078002802D013
:101B6000FEF753FB2AE2DFF8E4050078002806D0F0
:101B7000FFF7F2FB0020DFF8D41508701EE2DFF853
:101B8000D0050078DFF8A41509781922DFF8C435EC
:101B900002FB0131405CFF2803D10020DFF8B015C3
:101BA0000870DFF8AC050078DFF880150978192295
:101BB000DFF8A03502FB0131405CDFF894150978AD
:101BC000491CDFF88C251170C0B200284ED00128C6
:101BD0005FD0022862D0032865D0042868D0052889
:101BE0006BD006287CD0072800F08D80082800F0F4
:101BF0009D80092800F0AD800A2800F0BD800B28E8
:101C000000F0B9810C2800F0B9810D2800F0B981ED
:101C10000E2800F0C4800F2800F0D480112800F0B6
:101C2000E480132800F0BE81142800F0C08115283C
:101C300000F0C281162800F0EB80172800F0FB802E
:101C4000182800F00C81192800F01D811A2800F0D6
:101C50002E811B2800F03F811C2800F050811D2898
:101C600000F061811E2800F07281A7E101210020AF
:101C7000FFF778F9DFF8300D0078401CDFF8281DF9
:101C80000870C0B2102803DB1420DFF81C1D087098
:101C900094E101210020FEF71AFB8FE102210120CF
:101CA000FEF715FB8AE104210220FEF710FB85E117
:101CB00008210320FEF70BFB80E101210020FEF745
:101CC000FFFCDFF8E80C0078401CDFF8E01C08702F
:101CD000C0B2102803DB1420DFF8D01C08706DE1BF
:101CE00002210120FEF7ECFCDFF8C00C4078401C1C
:101CF000DFF8B81C4870C0B2102803DB1420DFF8EE
:101D0000AC1C48705AE101210020FEF7ADFEDFF85F
:101D1000A00C0078401CDFF8981C0870C0B2102896
:101D200003DB1420DFF8881C087047E10221012042
:101D3000FEF79AFEDFF8780C4078401CDFF8701C44
:101D40004870C0B2102803DB1420DFF8641C487010
:101D500034E104210220FEF787FEDFF8540C80787E
:101D6000401CDFF84C1C8870C0B2102803DB142024
:101D7000DFF83C1C887021E108210320FEF774FE87
:101D8000DFF82C0CC078401CDFF8241CC870C0B2EF
:101D9000102803DB1420DFF8181CC8700EE1102196
:101DA0000420FEF761FEDFF8080C0079401CDFF824
:101DB000001C0871C0B2102803DB1420DFF8F01BF0
:101DC0000871FBE020210520FEF74EFEDFF8E00B56
:101DD0004079401CDFF8D81B4871C0B2102803DBE3
:101DE0001420DFF8CC1B4871E8E040210620FEF704
:101DF0003BFEDFF8BC0B8079401CDFF8B41B887118
:101E0000C0B2102803DB1420DFF8A41B8871D5E0D2
:101E100080210720FEF728FEDFF8940BC079401CD4
:101E2000DFF88C1BC871C0B2102803DB1420DFF868
:101E3000801BC871C2E04FF480710820FEF714FEC9
:101E4000DFF86C0B007A401CDFF8641B0872C0B22C
:101E5000102803DB1420DFF8581B0872AEE040F2B4
:101E600001110920FEF700FEDFF8440B407A401C08
:101E7000DFF83C1B4872C0B2102803DB1420DFF8E7
:101E8000301B48729AE04FF481710A20FEF7ECFD96
:101E9000DFF81C0B807A401CDFF8141B8872C0B27C
:101EA000102803DB1420DFF8081B887286E04FF44B
:101EB00082710B20FEF7D8FDDFF8F40AC07A401CCF
:101EC000DFF8EC1AC872C0B2102803DB1420DFF868
:101ED000E01AC87272E04FF484710C20FEF7C4FD62
:101EE000DFF8CC0A007B401CDFF8C41A0873C0B2CC
:101EF000102803DB1420DFF8B81A08735EE04FF4F3
:101F000088710D20FEF7B0FDDFF8A40A407B401C6D
:101F1000DFF89C1A4873C0B2102803DB1420DFF8E6
:101F2000901A48734AE04FF490710E20FEF79CFD22
:101F3000DFF87C0A807B401CDFF8741A8873C0B21B
:101F4000102803DB1420DFF8681A887336E04FF49A
:101F5000A0710F20FEF788FDDFF8540AC07B401CFB
:101F6000DFF84C1AC873C0B2102803DB1420DFF866
:101F7000401AC87322E0FFF781F81FE0FFF7E6F888
:101F80001CE0FFF796F9DFF8C80A0078401CDFF87C
:101F9000C01A0870C0B2102803DB1420DFF8B01A92
:101FA00008700BE001210020FFF7B6FA06E00121DE
:101FB0000020FFF751FA01E0FFF77CFBFEF71FF965
:101FC00001BD0000B004002080B50020DFF8841AB5
:101FD0000978002900F0A1800021DFF8782A11702B
:101FE000012105E0C9B2DFF8702A8A5C1018491C8B
:101FF000C9B2DFF8642A1278521E9142F2DB90F0E7
:102000005500DFF8541A0978DFF84C2A891811F8BE
:10201000011CC0B2884240F08080DFF83C0A407862
:1020200010F0F000C0B2102810D020281ED03028A8
:102030002DD040283AD0502839D0602848D0702878
:1020400057D0802858D0C0285ED063E0DFF80C0A53
:10205000006890F00100DFF8041A0860DFF8F80962
:10206000407810F0030001F049F853E0DFF8E80988
:10207000407810F0030001F081FA0020DFF8D81951
:10208000497811F00F01DFF82429885442E0DFF885
:10209000C809407802F0E1F90020DFF8BC1949785E
:1020A00011F00F01DFF80829885433E032E0DFF83F
:1020B000A809407810F0030002F092FA0020DFF83F
:1020C0009819497811F00F01DFF88429885421E02C
:1020D000DFF88409407810F0030002F0BFFA002016
:1020E000DFF87419497811F00F01DFF8BC28885423
:1020F00010E000F031F80DE0DFF85C09407810F0F6
:10210000030000F0B9FC05E00F480078002801D07A
:1021100000F050FC0B200B49088001BD5E0600203A
:102120000C080140300100208E0600208A060020A5
:1021300056060020EC0500200044004094060020D4
:102140000444004032060020860600208706002056
:102150009706002078CB000838B50025DFF8F8088E
:102160008078DFF8FC180870002400E0641C042C60
:1021700080F21984DFF8EC080078DFF8DC184018EA
:10218000C078DFF8E4180870DFF8DC080078012870
:1021900008D0022874D0032800F09881052800F0A8
:1021A0009483F6E3DFF8BC080078DFF8AC18401839
:1021B000407900280AD1DFF8B40890F8280010F020
:1021C000FB00DFF8A81881F828004EE0DFF894083B
:1021D0000078DFF8841840184079012814D1DFF81E
:1021E0008C0890F8280010F0F300DFF8801881F8D0
:1021F0002800DFF8780890F8280050F00400DFF895
:102200006C1881F8280030E0DFF858080078DFF813
:1022100048184018407902280AD1DFF8500890F891
:10222000280010F0F700DFF8441881F828001CE0BF
:10223000DFF830080078DFF82018401840790328CC
:1022400013D1DFF8280890F8280010F0F300DFF829
:102250001C1881F82800DFF8140890F8280050F0C6
:102260000800DFF8081881F82800DFF8F807007880
:10227000DFF8E41709790818DFF8E817087088E331
:10228000DFF8E0070078DFF8D01740184079C0B2D7
:102290004509DFF8D0070078DFF8BC1740188079CF
:1022A000012844D1DFF8C407007FC0B20009C0B2E2
:1022B0001930DFF8B0170978DFF89C278918C97939
:1022C0008842C0F2F480DFF89C070078DFF88817B6
:1022D0004018C079DFF89417097F11F00F01D1F190
:1022E00019018842C0F2E380DFF878070078DFF850
:1022F00068174018C079EDB2DFF8741768540020F1
:10230000EDB2DFF870176854DFF86007007C50F01A
:102310008000DFF858170874DFF8500790F8630062
:1023200050F00200DFF8441781F86300BFE0DFF8E7
:1023300034070078DFF8201740188079022864D12C
:10234000DFF820070078DFF810174018C079072859
:1023500053D0EDB2DFF814072818007C400740F195
:10236000A680DFF800070078DFF8EC164018C07987
:10237000012807D10120EDB2DFF8F016691881F8C5
:10238000360017E0DFF8DC060078DFF8CC164018DE
:10239000C079022807D10220EDB2DFF8D016691803
:1023A00081F8360006E00320EDB2DFF8C0166918A8
:1023B00081F83600EDB2DFF8B4062818007C50F042
:1023C0008000EDB2DFF8A41669180874EDB2DFF8EA
:1023D0009C062818007D10F0F700EDB2DFF88C168F
:1023E00069180875DFF8840690F8630050F0020061
:1023F000DFF8781681F8630059E00020EDB2DFF8CD
:102400006C16691881F8360051E0DFF8580600783C
:10241000DFF8441640188079032848D1DFF84406D5
:102420000078DFF834164018C07907280CD1EDB2D7
:10243000DFF838062818007C50F00400EDB2DFF811
:102440002C16691808740BE0EDB2DFF82006281886
:10245000007C10F0FB00EDB2DFF81016691808746C
:102460002900C9B2442001F09BFCDFF8000690F877
:10247000630050F00200DFF8F41581F86300EDB25C
:10248000DFF8E8052818007D50F00800EDB2DFF80D
:10249000DC1569180875EDB2DFF8D0052818007C46
:1024A00050F08000EDB2DFF8C41569180874DFF849
:1024B000B4050078DFF8AC150978DFF89C25891899
:1024C00009790818DFF89C15087062E2DFF8280C1B
:1024D0000078002803D0012800F02181EAE1DFF82C
:1024E00084050078DFF870154018407910F003007B
:1024F00003281DD0DFF86C050078DFF85C15401864
:102500004079C0070AD5DFF8640590F82D0050F037
:102510000200DFF8581581F82D0009E0DFF84C05BE
:1025200090F82D0010F0FD00DFF8401581F82D0027
:10253000DFF830050078DFF820154018407910F0FA
:102540000C000C281DD0DFF81C050078DFF80815FA
:102550004018407940070AD5DFF8100590F82D00A3
:1025600050F00400DFF8041581F82D0009E0DFF8D1
:10257000FC0490F82D0010F0FB00DFF8F01481F857
:102580002D00DFF8E0040078DFF8CC144018407923
:1025900010F0300030281DD0DFF8C8040078DFF8D4
:1025A000B81440184079C0060AD5DFF8C00490F886
:1025B0002D0050F00800DFF8B41481F82D0009E078
:1025C000DFF8A80490F82D0010F0F700DFF89C1455
:1025D00081F82D00DFF88C040078DFF87C144018B7
:1025E000407910F0C000C0281DD0DFF878040078D2
:1025F000DFF864144018407940060AD5DFF86C040F
:1026000090F82E0050F00100DFF8601481F82E00E1
:1026100009E0DFF8580490F82E0010F0FE00DFF813
:102620004C1481F82E00DFF83C040078DFF8281401
:102630004018807910F0030003281DD0DFF824042F
:102640000078DFF8141440188079C0070AD5DFF845
:102650001C0490F82E0050F00200DFF8101481F8EE
:102660002E0009E0DFF8040490F82E0010F0FD00C1
:10267000DFF8F81381F82E00DFF8E8030078DFF8C0
:10268000D8134018807910F00C000C281DD0DFF80A
:10269000D4030078DFF8C0134018807940070AD5CA
:1026A000DFF8C80390F82E0050F00400DFF8BC13E8
:1026B00081F82E0009E0DFF8B40390F82E0010F046
:1026C000FB00DFF8A81381F82E00DFF898030078EC
:1026D000DFF884134018807910F0300030281DD0C6
:1026E000DFF880030078DFF8701340188079C006A7
:1026F0000AD5DFF8780390F82D0050F01000DFF8CD
:102700006C1381F82D0009E0DFF8600390F82D00CC
:1027100010F0EF00DFF8541381F82D00CAE0DFF865
:1027200044030078DFF830134018407910F00300BC
:1027300003281AD0DFF82C030078DFF81C134018A8
:102740004079C00709D5DFF8240390F82D0050F038
:102750000200C64981F82D0007E0C44890F82D001A
:1027600010F0FD00C14981F82D00BE480078BA493B
:102770004018407910F00C000C2817D0B9480078A8
:10278000B54940184079400708D5B84890F82D0061
:1027900050F00400B54981F82D0007E0B34890F8E7
:1027A0002D0010F0FB00B14981F82D00AD480078F4
:1027B000A9494018407910F03000302817D0A948B6
:1027C0000078A54940184079C00608D5A74890F878
:1027D0002D0050F00800A54981F82D0007E0A3481E
:1027E00090F82D0010F0F700A04981F82D009D48C9
:1027F000007899494018407910F0C000C02817D0DF
:1028000098480078944940184079400608D5974880
:1028100090F82E0050F00100944981F82E0007E056
:10282000924890F82E0010F0FE00904981F82E009A
:102830008C48007888494018807910F003000328FC
:1028400017D088480078844940188079C00708D597
:10285000864890F82E0050F00200844981F82E003E
:1028600007E0824890F82E0010F0FD007F4981F8C3
:102870002E007C48007878494018807910F00C00D0
:102880000C2817D0774800787349401880794007A2
:1028900008D5764890F82E0050F00400734981F86E
:1028A0002E0007E0714890F82E0010F0FB006F49F1
:1028B00081F82E006B4800786A490978664A8918C1
:1028C000097908186749087063E00120DFF8701C77
:1028D00008706448007860494018407910F00B0097
:1028E0000B2808D1DFF85C0C007850F00200DFF80C
:1028F000541C087018E05B4800785749401840792C
:102900000B21084208D0DFF83C0C007850F00100A1
:10291000DFF8301C087007E0DFF8280C007850F072
:102920000400DFF8201C08704E4800784A4940181F
:10293000407910F0B000B02808D1DFF8080C4078DA
:1029400050F00200DFF8FC1B487018E045480078A2
:10295000414940184079B021084208D0DFF8E40B23
:10296000407850F00100DFF8DC1B487007E0DFF82A
:10297000D40B407850F00400DFF8C81B4870394889
:10298000007838490978344A89180979081835498E
:102990000870344800783249097888427FF4E6AB01
:1029A00000203049087031BDE8050020E005002016
:1029B0001005002080B528488078CA2847D12648CD
:1029C0004079C0071AD5DFF8800B006850F001008D
:1029D000DFF8741B0860254890F850001E490979FB
:1029E00088422FD0214890F85010012003F004FABB
:1029F000194800791D4981F8500023E0DFF8480BA1
:102A0000006840084000DFF8401B0860DFF83C0B1E
:102A1000007810F001001049897911F00101884215
:102A200010D0DFF82C0B007800280BD10020DFF845
:102A3000241B08700120DFF8201B08700120DFF83C
:102A4000101B087004488079DFF8001B087001BD76
:102A5000E405002098060020F80100200C18014031
:102A60009E060020A00600209F06002004000020F3
:102A7000940500209C05002038B50400E4B2DFF87E
:102A8000DC0A205C002800F01283DFF8D40A90F8FA
:102A90002800800740F11083E4B20320DFF8C41A55
:102AA00000FB0410007810F00100DFF8BC1A8978F0
:102AB00011F00101884210D02100C9B2E4B21E20F9
:102AC000DFF834261278B423DFF8A05A03FB025251
:102AD00000FB0420007801F063F9E4B20320DFF882
:102AE000841A00FB0410007810F00200DFF8781A56
:102AF000897811F00201884210D02100C9B2E4B2F5
:102B00001E20DFF8F4251278B423DFF8605A03FBA7
:102B1000025200FB0420407801F042F9E4B20320A5
:102B2000DFF8401A00FB0410007810F00400DFF812
:102B3000381A897811F00401884210D02100C9B2F6
:102B4000E4B21E20DFF8B0251278B423DFF81C5A57
:102B500003FB025200FB0420807801F021F9E4B26B
:102B60000320DFF8001A00FB0410007810F00800C2
:102B7000DFF8F419897811F00801884210D021009B
:102B8000C9B2E4B21E20DFF870251278B423DFF852
:102B9000DC5903FB025200FB0420C07801F000F96D
:102BA000E4B20320DFF8BC1900FB0410007810F039
:102BB0001000DFF8B419897811F01001884210D0A4
:102BC0002100C9B2E4B21E20DFF82C251278B4230C
:102BD000DFF8985903FB025200FB0420007901F052
:102BE000DFF8E4B20320DFF87C1900FB0410007862
:102BF00010F02000DFF87019897811F02001884268
:102C000010D02100C9B2E4B21E20DFF8EC24127803
:102C1000B423DFF8585903FB025200FB042040792B
:102C200001F0BEF8E4B20320DFF8381900FB04100D
:102C3000007810F04000DFF83019897811F0400179
:102C4000884210D02100C9B2E4B21E20DFF8A824C7
:102C50001278B423DFF8145903FB025200FB04205E
:102C6000807901F09DF8E4B20320DFF8F81800FB4A
:102C70000410007810F08000DFF8EC18897811F06B
:102C80008001884210D02100C9B2E4B21E20DFF8D2
:102C900068241278B423DFF8D45803FB025200FBF7
:102CA0000420C07901F07CF8E4B20320DFF8B41806
:102CB00000FB0410407810F00100DFF8AC18C97870
:102CC00011F00101884210D02100C9B2E4B21E20E7
:102CD000DFF824241278B423DFF8905803FB025263
:102CE00000FB0420007A01F05BF8E4B20320DFF877
:102CF000741800FB0410407810F00200DFF8681828
:102D0000C97811F00201884210D02100C9B2E4B2A2
:102D10001E20DFF8E4231278B423DFF8505803FBB9
:102D2000025200FB0420407A01F03AF8E4B203209A
:102D3000DFF8301800FB0410407810F00400DFF8D2
:102D40002818C97811F0040188420FD02100C9B2B7
:102D5000E4B21E20E84A1278B423DFF8105803FBCF
:102D6000025200FB0420807A01F01AF8E4B203203A
:102D7000DFF8F01700FB0410407810F00800DFF8CF
:102D8000E817C97811F0080188420FD02100C9B2B4
:102D9000E4B21E20D84A1278B423DFF8D05703FBE0
:102DA000025200FB0420C07A00F0FAFFE4B20320D4
:102DB000DFF8B01700FB0410407810F01000DFF8C7
:102DC000A817C97811F0100188420FD02100C9B2AC
:102DD000E4B21E20C84A1278B423DFF8905703FBF0
:102DE000025200FB0420007B00F0DAFFE4B2032073
:102DF000DFF8701700FB0410407810F02000DFF8B7
:102E00006817C97811F0200188420FD02100C9B29B
:102E1000E4B21E20B84A1278B423DFF8505703FBFF
:102E2000025200FB0420407B00F0BAFFE4B2032012
:102E3000DFF8301700FB0410407810F04000DFF896
:102E40002817C97811F0400188420FD02100C9B27B
:102E5000E4B21E20A84A1278B423DFF8105703FB0F
:102E6000025200FB0420807B00F09AFFE4B20320B2
:102E7000DFF8F01600FB0410407810F08000DFF857
:102E8000E816C97811F0800188420FD02100C9B23C
:102E9000E4B21E20984A1278B423DFF8D05603FB20
:102EA000025200FB0420C07B00F07AFFE4B2032052
:102EB000DFF8B01600FB0410807810F00100DFF896
:102EC000A816097911F0010188420FD02100C9B27A
:102ED000E4B21E20884A1278B423DFF8905603FB30
:102EE000025200FB0420007C00F05AFFE4B20320F1
:102EF000DFF8701600FB0410807810F00200DFF895
:102F00006816097911F0020188420FD02100C9B278
:102F1000E4B21E20784A1278B423DFF8505603FB3F
:102F2000025200FB0420407C00F03AFFE4B2032090
:102F3000DFF8301600FB0410807810F00400DFF892
:102F40002816097911F0040188420FD02100C9B276
:102F5000E4B21E20684A1278B423DFF8105603FB4F
:102F6000025200FB0420807C00F01AFFE4B2032030
:102F7000DFF8F01500FB0410807810F00800DFF88F
:102F8000E815097911F0080188420FD02100C9B273
:102F9000E4B21E20584A1278B423DFF8D05503FB60
:102FA000025200FB0420C07C00F0FAFEE4B20320D1
:102FB000DFF8B01500FB0410807810F01000DFF887
:102FC000A815097911F0100188420FD02100C9B26B
:102FD000E4B21E20484A1278B423DFF8905503FB70
:102FE000025200FB0420007D00F0DAFEE4B2032070
:102FF000DFF8701500FB0410807810F02000DFF877
:103000006815097911F0200188420FD02100C9B25A
:10301000E4B21E20384A1278B423DFF8505503FB7F
:10302000025200FB0420407D00F0BAFEE4B203200F
:10303000DFF8301500FB0410807810F04000DFF856
:103040002815097911F0400188420FD02100C9B23A
:10305000E4B21E20284A1278B423DFF8105503FB8F
:10306000025200FB0420807D00F09AFEE4B20320AF
:10307000DFF8F01400FB0410807810F08000DFF817
:10308000E814097911F08001884215D02100C9B2F5
:10309000E4B21E20184A1278B423DFF8D05403FBA0
:1030A000025200FB0420C07D00F07AFE04E0012003
:1030B000E4B2DFF8A8146054DFF8AC048078E4B21E
:1030C0000321DFF8A02401FB04210870DFF8980435
:1030D000C078E4B20321DFF88C2401FB042148709E
:1030E000DFF884040079E4B20321DFF8782401FBDF
:1030F0000421887031BD00008A06002010B504004C
:10310000DFF86404007A000600F1AC810020E4B22C
:10311000DFF85C146054DFF85004807810F07F0012
:1031200047281FDADFF838040078DFF83C14897884
:10313000884217D0DFF82804007C50F08000DFF8C8
:1031400020140874DFF820048078DFF81414087065
:10315000DFF80C0490F8630050F00200DFF8001470
:1031600081F86300DFF80004C07810F07F00472882
:103170000FDADFF8F403C078E4B2DFF8E413611883
:103180000871DFF8F003006850F00400DFF8E41382
:103190000860DFF8CC0390F84C00E4B2DFF8C0130D
:1031A0006118097911F07F01884226DAE4B2DFF86C
:1031B000C803205C401CE4B2DFF8BC136054C0B20A
:1031C00004285DDB0020E4B2DFF8AC136054DFF8C4
:1031D000900390F82A001021A1400843DFF88013E3
:1031E00081F82A00DFF8780390F82D0050F0800075
:1031F000DFF86C1381F82D0042E0E4B2002C05D01A
:10320000022C19D00DD3032C21D02AE0DFF8500373
:1032100090F82A0010F0EF00DFF8441381F82A003C
:103220001FE0DFF83C0390F82A0010F0DF00DFF821
:10323000301381F82A0014E0DFF8240390F82A0004
:1032400010F0BF00DFF8181381F82A0009E0DFF85A
:10325000100390F82A0010F07F00DFF8041381F8C3
:103260002A000020E4B2DFF810136054DFF8F00207
:1032700090F82D0010F07F00DFF8E41281F82D00A7
:10328000DFF8E402007910F07F00472827DAE4B283
:10329000DFF8CC022018007ADFF8CC1209798842D6
:1032A0001DD0E4B2DFF8B8022018007D50F0800095
:1032B000E4B2DFF8AC1261180875DFF8AC020079EF
:1032C000E4B2DFF89C1261180872DFF8940290F8FB
:1032D000630050F00400DFF8881281F86300DFF823
:1032E0008802407910F07F00472807DADFF878027B
:1032F0004079E4B2DFF8681261180873DFF86802F9
:10330000807910F07F00642807DADFF85C028079AA
:10331000E4B2DFF84C126118C877E4B2DFF85C0A57
:10332000205C002800F09280DFF8340290F828003A
:10333000800740F18B80E4B2DFF8440A205CDFF8BC
:103340002812C979884200F08180E4B2DFF8300A9F
:10335000205C10F00100DFF81012C97911F00101B2
:10336000884225D0DFF8F801007C90F00400DFF8F7
:10337000F01108740021442000F012FDDFF8E00194
:1033800090F8630050F00200DFF8D41181F8630078
:10339000DFF8CC01007D50F00800DFF8C41108759B
:1033A000DFF8BC01007C50F08000DFF8B411087435
:1033B000E4B2DFF8CC09205C10F00200DFF8A811BD
:1033C000C97911F0020188421ED0E4B2DFF8900101
:1033D0002018007C90F02000E4B2DFF8841161181E
:1033E0000874DFF87C0190F8630050F004005C4939
:1033F00081F86300E4B25A482018007D50F0800044
:10340000E4B2574961180875E4B2DFF87409205C2A
:1034100010F010005449C97911F01001884205D00C
:103420004F48007E90F008004D490876E4B2DFF87E
:103430005009205C10F020004B49C97911F020019F
:10344000884203D02000C0B200F011F84648C0798D
:10345000E4B2DFF82C1960540120E4B2DFF81C1943
:10346000605403E00120E4B24149605410BDC0B291
:103470003B494118097C49075BD5C0B2384941181E
:1034800091F83610002914D0C0B23549411891F88E
:103490003610491CC0B2324A821882F83610C9B2BE
:1034A000042925DB0121C0B22D4A821882F836108A
:1034B0001EE0C0B22A494118097C11F00301C0B2D4
:1034C000274A821882F83610C0B22549411891F86F
:1034D0003610491CC0B2224A821882F83610C9B28E
:1034E000042905DB0121C0B21D4A821882F836107A
:1034F000C0B21B494118097C51F08001C0B2184A82
:1035000082181174C0B216494118097D11F0F701F3
:10351000C0B2134A80180175114890F8630050F04A
:1035200002000F4981F863000120DFF85818087085
:1035300005E00021C0B20A4A801880F836107047B2
:10354000A106002030050020F0050020990600208B
:103550008206002081060020830600209A060020B3
:1035600004000020B0040020F8010020D0C30008AF
:10357000D0050020F40500205C05002038B50400CB
:10358000E4B2DFF80808205C002800F0F782002091
:10359000E4B2DFF8FC176054DFF8EC0790F828007D
:1035A000800740F1EF82E4B2DFF8E80710F824006A
:1035B00010F00100DFF8E017C97811F0010188422E
:1035C00010D02100C9B2E4B21920DFF81C2C127807
:1035D0007D23DFF8C85703FB025200FB042000786C
:1035E00000F0DEFBE4B2DFF8AC0710F8240010F0C6
:1035F0000200DFF8A417C97811F00201884210D048
:103600002100C9B2E4B21920DFF8DC2B12787D2347
:10361000DFF8885703FB025200FB0420407800F0DB
:10362000BFFBE4B2DFF86C0710F8240010F00400D0
:10363000DFF86417C97811F00401884210D0210026
:10364000C9B2E4B21920DFF8A02B12787D23DFF88D
:103650004C5703FB025200FB0420807800F0A0FBD3
:10366000E4B2DFF8300710F8240010F00800DFF8AB
:103670002817C97811F00801884210D02100C9B27A
:10368000E4B21920DFF8602B12787D23DFF80C57A5
:1036900003FB025200FB0420C07800F081FBE4B27F
:1036A000DFF8F00610F8240010F01000DFF8E8163C
:1036B000C97811F01001884210D02100C9B2E4B2DB
:1036C0001920DFF8242B12787D23DFF8D05603FB76
:1036D000025200FB0420007900F062FBE4B2DFF844
:1036E000B40610F8240010F02000DFF8AC16C978FA
:1036F00011F02001884210D02100C9B2E4B2192093
:10370000DFF8E42A12787D23DFF8905603FB02529B
:1037100000FB0420407900F043FBE4B2DFF87406BC
:1037200010F8240010F04000DFF86C16C97811F092
:103730004001884210D02100C9B2E4B21920DFF85C
:10374000A82A12787D23DFF8545603FB025200FBAF
:103750000420807900F024FBE4B2DFF8380610F88A
:10376000240010F08000DFF83016C97811F08001D5
:10377000884210D02100C9B2E4B21920DFF8682ACB
:1037800012787D23DFF8145603FB025200FB04205D
:10379000C07900F005FBE4B2DFF8F80510EB840017
:1037A000407810F00100DFF8F015097911F00101FF
:1037B000884210D02100C9B2E4B21920DFF8282ACB
:1037C00012787D23DFF8D45503FB025200FB04205E
:1037D000007A00F0E5FAE4B2DFF8B80510EB8400F7
:1037E000407810F00200DFF8B015097911F00201FD
:1037F000884210D02100C9B2E4B21920DFF8E829CC
:1038000012787D23DFF8945503FB025200FB04205D
:10381000407A00F0C5FAE4B2DFF8780510EB8400D6
:10382000407810F00400DFF87015097911F00401F8
:10383000884210D02100C9B2E4B21920DFF8A829CB
:1038400012787D23DFF8545503FB025200FB04205D
:10385000807A00F0A5FAE4B2DFF8380510EB8400B6
:10386000407810F00800DFF83015097911F00801F0
:10387000884210D02100C9B2E4B21920DFF86829CB
:1038800012787D23DFF8145503FB025200FB04205D
:10389000C07A00F085FAE4B2DFF8F80410EB840097
:1038A000407810F01000DFF8F014097911F01001E1
:1038B000884210D02100C9B2E4B21920DFF82829CB
:1038C00012787D23DFF8D45403FB025200FB04205E
:1038D000007B00F065FAE4B2DFF8B80410EB840076
:1038E000407810F02000DFF8B014097911F02001C1
:1038F000884210D02100C9B2E4B21920DFF8E828CC
:1039000012787D23DFF8945403FB025200FB04205D
:10391000407B00F045FAE4B2DFF8780410EB840055
:10392000407810F04000DFF87014097911F0400180
:10393000884210D02100C9B2E4B21920DFF8A828CB
:1039400012787D23DFF8545403FB025200FB04205D
:10395000807B00F025FAE4B2DFF8380410EB840035
:10396000407810F08000DFF83014097911F0800100
:10397000884210D02100C9B2E4B21920DFF86828CB
:1039800012787D23DFF8145403FB025200FB04205D
:10399000C07B00F005FAE4B2DFF8F80310EB840016
:1039A000807810F00100DFF8F013497911F001017F
:1039B000884210D02100C9B2E4B21920DFF82828CB
:1039C00012787D23DFF8D45303FB025200FB04205E
:1039D000007C00F0E5F9E4B2DFF8B80310EB8400F6
:1039E000807810F00200DFF8B013497911F002017D
:1039F000884210D02100C9B2E4B21920DFF8E827CC
:103A000012787D23DFF8945303FB025200FB04205D
:103A1000407C00F0C5F9E4B2DFF8780310EB8400D5
:103A2000807810F00400DFF87013497911F0040178
:103A3000884210D02100C9B2E4B21920DFF8A827CB
:103A400012787D23DFF8545303FB025200FB04205D
:103A5000807C00F0A5F9E4B2DFF8380310EB8400B5
:103A6000807810F00800CC49497911F008018842AB
:103A70000FD02100C9B2E4B21920DFF86C27127808
:103A80007D23C64D03FB025200FB0420C07C00F0E6
:103A900087F9E4B2BF4810EB8400807810F0100082
:103AA000BD49497911F0100188420FD02100C9B2F7
:103AB000E4B21920DFF8302712787D23B74D03FBDD
:103AC000025200FB0420007D00F06AF9E4B2B14824
:103AD00010EB8400807810F02000AF49497911F094
:103AE000200188420FD02100C9B2E4B21920DFF8CA
:103AF000F82612787D23A94D03FB025200FB042017
:103B0000407D00F04DF9E4B2A24810EB84008078CB
:103B100010F04000A049497911F0400188420FD0CF
:103B20002100C9B2E4B21920DFF8BC2612787D2347
:103B30009A4D03FB025200FB0420807D00F030F917
:103B4000E4B2944810EB8400807810F08000924931
:103B5000497911F08001884214D02100C9B2E4B241
:103B60001920DFF8842612787D238C4D03FB025246
:103B700000FB0420C07D00F013F903E00120E4B253
:103B8000824960548448C078E4B2824901F8240034
:103B900081480079E4B27F4911EB840148707E4886
:103BA0004079E4B27B4911EB840188707A48C0798E
:103BB00010F07F00472817DA734800787649C979F2
:103BC000884211D07048007C50F080006E49087423
:103BD0007148C0796C4908706B4890F8630050F0E8
:103BE0000200694981F863006B48007A10F07F0099
:103BF00047280BDA6848007A63490871DFF8F00A51
:103C0000006850F00400DFF8E81A08605E4890F899
:103C10004C00E4B25C496118097911F07F018842D7
:103C20001ADAE4B2DFF8CC0A205C401CE4B2DFF818
:103C3000C41A6054C0B204283FDB0020E4B2DFF8AD
:103C4000B41A6054504890F82A001021A14008434B
:103C50004D4981F82A0030E0E4B2002C05D0022C56
:103C600015D00BD3032C1BD022E0474890F82A0034
:103C700010F0EF00444981F82A0019E0424890F81A
:103C80002A0010F0DF00404981F82A0010E03E4889
:103C900090F82A0010F0BF003B4981F82A0007E0A5
:103CA000394890F82A0010F07F00374981F82A003F
:103CB0000020E4B2DFF83C1A6054334890F8280042
:103CC000800752D5E4B2334810EB8400C078324903
:103CD000497A884249D0E4B22E4810EB8400C0787B
:103CE00010F001002C49497A11F00101884219D0E5
:103CF0002548007C90F0040023490874224890F87D
:103D0000630050F00200204981F863001E48007DE6
:103D100050F008001C4908751B48007C50F08000DA
:103D200019490874E4B21B4810EB8400C07810F005
:103D300010001949497A11F01001884205D0124843
:103D4000007E90F0080010490876E4B2114810EBAC
:103D50008400C07810F020000F49497A11F020014A
:103D6000884202D00020FFF782FB0B48407AE4B281
:103D7000084911EB8401C87031BD0000A405002082
:103D8000A00500209D06002004000020A8050020BA
:103D9000D0050020F0040020F8010020ECC7000846
:103DA00080B5C0B2102863D0112800F0D880122846
:103DB00000F0F180132800F00A81142800F023811C
:103DC000152800F03C81162800F05581172800F0D6
:103DD0006E81182800F08781192800F0D8811B28EF
:103DE00000F0D4811C2800F0D0811E2800F07C81D6
:103DF0001F2800F07A81242800F0F881252800F09F
:103E00007581302800F0F381312800F020823228BB
:103E100000F04C82402800F07782442800F0E882CD
:103E2000502800F0FC82512800F0FE82522800F059
:103E30000083532800F0FD82542800F0FA82802885
:103E400000F0A681812800F0B981822800F04F811E
:103E5000832800F05981842800F06381852800F0D0
:103E60006D81862800F07781872800F08181F3E258
:103E7000DD480078002802D0012838D06EE0DFF855
:103E8000780890F82D001E21084206D1DFF8680856
:103E900090F82E000721084214D0DFF85C0890F853
:103EA0002D0010F0E100DFF8501881F82D00DFF848
:103EB000480890F82E0010F0F800DFF83C1881F860
:103EC0002E0013E0DFF8300890F82D0050F01E00AF
:103ED000DFF8241881F82D00DFF81C0890F82E0078
:103EE00050F00700DFF8101881F82E0036E0DFF8F8
:103EF000080890F82D000E21084206D1DFF8F807D7
:103F000090F82E000721084214D0DFF8EC0790F853
:103F10002D0010F0F100DFF8E01781F82D00DFF838
:103F2000D80790F82E0010F0F800DFF8CC1781F8D1
:103F30002E0013E0DFF8C00790F82D0050F00E00BF
:103F4000DFF8B41781F82D00DFF8AC0790F82E00E9
:103F500050F00700DFF8A01781F82E007CE2DFF8B0
:103F6000980790F82D0080070AD5DFF88C0790F8A5
:103F70002D0010F0FD00DFF8801781F82D0009E01A
:103F8000DFF8740790F82D0050F00200DFF8681792
:103F900081F82D0060E2DFF8600790F82D004007FF
:103FA0000AD5DFF8540790F82D0010F0FB00DFF879
:103FB000481781F82D0009E0DFF83C0790F82D0044
:103FC00050F00400DFF8301781F82D0044E2DFF8EC
:103FD000280790F82D0000070AD5DFF81C0790F895
:103FE0002D0010F0F700DFF8101781F82D0009E020
:103FF000DFF8040790F82D0050F00800DFF8F816FD
:1040000081F82D0028E2DFF8F00690F82D00C006B8
:104010000AD5DFF8E40690F82D0010F0EF00DFF885
:10402000D81681F82D0009E0DFF8CC0690F82D00B5
:1040300050F01000DFF8C01681F82D000CE2DFF818
:10404000B80690F82E00C0070AD5DFF8AC0690F845
:104050002E0010F0FE00DFF8A01681F82E0009E017
:10406000DFF8940690F82E0050F00100DFF8881673
:1040700081F82E00F0E1DFF8800690F82E0080072E
:104080000AD5DFF8740690F82E0010F0FD00DFF876
:10409000681681F82E0009E0DFF85C0690F82E0023
:1040A00050F00200DFF8501681F82E00D4E1DFF85E
:1040B000480690F82E0040070AD5DFF83C0690F835
:1040C0002E0010F0FB00DFF8301681F82E0009E01A
:1040D000DFF8240690F82E0050F00400DFF81816E0
:1040E00081F82E00B8E1B7E1B6E1B5E1B4E1002016
:1040F000DFF808160870DFF80406007850F00100B9
:10410000DFF8F8150870A7E10020DFF8F015087057
:10411000DFF8E805007850F00200DFF8E0150870DD
:104120009AE10020DFF8D4150870DFF8D005007898
:1041300050F00400DFF8C41508708DE10020DFF8AE
:10414000BC154870DFF8B405407850F00100DFF886
:10415000AC15487080E10020DFF8A0154870DFF84A
:104160009C05407850F00200DFF89015487073E12C
:104170000020DFF888154870DFF88005407850F09F
:104180000400DFF87815487066E165E164E163E1F9
:10419000C9B2DFF86C05085C312805DB3120C9B2F3
:1041A000DFF85C25885408E0C9B2DFF85405085CE4
:1041B0000A30C9B2DFF8482588544DE1C9B2DFF8AA
:1041C0004005085C0A2805DA0020C9B2DFF830256E
:1041D000885408E0C9B2DFF82805085C0A38C9B27B
:1041E000DFF81C25885437E18A06002034E1C9B283
:1041F000DFF80405081890F8240000070ED5C9B2AE
:10420000DFF8F404081890F8240010F0F700C9B2A1
:10421000DFF8E424891881F824000DE0C9B2DFF842
:10422000D804081890F8240050F00800C9B2DFF84C
:10423000C824891881F82400DFF8BC0490F82B000A
:1042400050F08000DFF8B01481F82B0004E1C9B20F
:10425000DFF8A404081890F82400000725D5C9B297
:10426000DFF89404081890F8240010F007000728DD
:104270000ED1C9B2DFF88004081890F8240010F0BD
:10428000F800C9B2DFF87024891881F824000CE026
:10429000C9B2DFF86404081890F82400401CC9B2C1
:1042A000DFF85424891881F82400D5E0C9B2DFF87A
:1042B0004804081890F82400000724D5C9B2DFF894
:1042C0003804081890F82400072210420ED1C9B211
:1042D000DFF82404081890F8240050F00700C9B251
:1042E000DFF81424891881F824000CE0C9B2DFF843
:1042F0000804081890F82400401EC9B2DFF8F8231B
:10430000891881F82400A7E0DFF8F8030078002876
:1043100038D1C9B2DFF8E0030818007C90F004003F
:10432000C9B2DFF8D4238A181074C9B2DFF8C80301
:104330000818007C50F08000C9B2DFF8BC238A184E
:104340001074C9B2DFF8B0030818007C40070CD520
:10435000C9B2DFF8A4030818007D50F00800C9B204
:10436000DFF894238918087541E0C9B2DFF88803A3
:104370000818007D10F0F700C9B2DFF87C23891817
:10438000087534E0C9B2DFF870030818007C90F0BB
:104390002000C9B2DFF860238A181074C9B2DFF8B0
:1043A00058030818007D50F08000C9B2DFF8482398
:1043B0008A181075C9B2DFF840030818007C80061F
:1043C0000BD5C9B2DFF830030818007D50F00800A3
:1043D000C9B2C94A8918087509E0C9B2C64808189F
:1043E000007D10F0F700C9B2C34A8918087533E0A0
:1043F000C9B2C148081890F8360010F0F800C9B2E8
:10440000BD4A8A1882F83600C9B2BB480818007C39
:1044100050F08000C9B2B84A891808741CE05421D1
:10442000442003F060FE17E054214D2003F05BFEB2
:1044300012E0B548007800280ED10120B24908707A
:104440000020B24908700120B1490870AA4890F8CC
:104450004F10002001F0D0FC01BD10B50400E4B203
:10446000AC48205C002800F0AE80A34890F82800FB
:10447000800740F1AC80E4B20320A74900FB0410A0
:10448000007810F00100A549C97811F001018842B7
:104490000CD02100C9B2E4B2A14800783022A14B6F
:1044A00002FB003010F83400FFF77AFCE4B203207E
:1044B000994900FB0410007810F002009749C97870
:1044C00011F0020188420DD02100C9B2E4B2944833
:1044D00000783022934B02FB003010EBC400407890
:1044E000FFF75EFCE4B203208B4900FB0410007868
:1044F00010F004008949C97811F0040188420DD0F8
:104500002100C9B2E4B2864800783022854B02FB14
:10451000003010EBC4008078FFF742FCE4B20320C7
:104520007D4900FB0410007810F008007B49C97831
:1045300011F0080188420DD02100C9B2E4B27848D8
:1045400000783022774B02FB003010EBC400C078BB
:10455000FFF726FCE4B203206F4900FB041000784B
:1045600010F010006D49C97811F0100188420DD08B
:104570002100C9B2E4B26A4800783022694B02FBDC
:10458000003010EBC4000079FFF70AFCE4B203200E
:10459000614900FB0410007810F020005F49C978E1
:1045A00011F02001884212D02100C9B2E4B25C4867
:1045B000007830225B4B02FB003010EBC4004079E6
:1045C000FFF7EEFB03E00120E4B252496054534888
:1045D000C078E4B20321504A01FB0421087010BDE9
:1045E00010B50400E4B25048205C00282CD0E4B29E
:1045F0004E48205C10F001004849097911F0010192
:10460000884225D040480078002821D101203E4929
:10461000087000203D49087001203D490870364867
:1046200090F84F10002001F0E7FB334890F830007D
:1046300050F08000304981F830003D48006850F06B
:1046400002003B49086003E00120E4B236496054AF
:1046500032480079E4B23549605410BD10B5040009
:10466000E4B23448205C002820D0E4B23248205C18
:1046700010F001002949C97811F00101884204D0E5
:104680002100C9B25120FFF78BFBE4B22A48205C1D
:1046900010F002002149C97811F00201884209D0C6
:1046A0002100C9B25020FFF77BFB03E00120E4B2F8
:1046B000204960541948C078E4B21F4960541F482B
:1046C0000078400612D50A48006850F001000849F9
:1046D000086000201A4908801048007919490870BC
:1046E0000348006830F002000149086010BD000076
:1046F000F40500205C0500200400002030050020A7
:10470000000500208C050020820600208106002084
:1047100083060020AC05002098040020F80100204A
:104720008A06002018CB0008DC050020D8050020F0
:10473000F8050020B0050020CC050020360600203A
:104740005C0600209B060020F0B400220026002416
:1047500000250023002791F803C01CF00F0C6246CF
:1047600091F803C05FEACC6C01D58B781A430B78C3
:104770001B0621D00368002406E0CD78482D02D125
:104780000125A5400561641C082C14D20125A54013
:104790000E882E40AE42F6D1A5000F2616FA05F778
:1047A000BB4312FA05F52B43CD78282DE5D1012521
:1047B000A5404561E7E703600B88FF2B26DD4368D2
:1047C000002420E0012514F10806B5400E882E4093
:1047D000AE4217D1A5000F2616FA05F7BB4312FA11
:1047E00005F52B43CD78282D04D1012514F10806B9
:1047F000B5404561CD78482D04D1012514F1080656
:10480000B5400561641C082CDCD34360F0BC7047E4
:104810000022806889B2084201D0012200E0002213
:104820001000C0B2704770B400220024002300259D
:10483000194E36683300C0F30346350086B23200A5
:1048400010F44016B6F5401F08D133F07063124CD7
:10485000246834F07064104D2C600FE0C40205D55C
:104860000324AC40A34353F0706307E0440DE4B26B
:10487000240112FA04F4A34353F07063C9B200296F
:1048800005D0400DC0B2000112FA00F00343024807
:10489000036070BC7047000004000140DFF8D402E0
:1048A000006850F00100DFF8CC120860DFF8C802A1
:1048B0000068DFF8C8120840DFF8BC120860DFF8B3
:1048C000B4020068DFF8B8120840DFF8A8120860E8
:1048D000DFF8A002006830F48020DFF8981208604A
:1048E000DFF89402006830F4FE00DFF88C120860F4
:1048F0000020DFF8901208607047DFF8781209682E
:1049000031F48031DFF86C221160DFF86812096839
:1049100031F48021DFF85C221160B0F5803F03D0D4
:10492000B0F5802F09D011E0DFF84802006850F49C
:104930008030DFF84012086008E0DFF838020068D5
:1049400050F4A020DFF82C120860FFE77047002227
:10495000894B1B681A0032F47C12084302438648D4
:1049600002607047C0B28849086070470021824ADF
:10497000126811008908890001437F48016070476F
:104980007D48006810F00C00704700217A4A1268D8
:10499000110031F0F00101437748016070470021B8
:1049A000754A1268110031F4E061014372480160F8
:1049B00070470021704A1268110031F4605151EAC9
:1049C000C0016D4801607047C9B2002905D06F4928
:1049D000097808436D49087005E06C49097831EAA7
:1049E00000006A490870704730B40022002100239B
:1049F0000024614D2D6815F00C052A00002A04D012
:104A0000042A05D0082A06D021E06249016020E08E
:104A1000604901601DE05849096811F47011890C62
:104A2000891C554A126812F48033002B03D15A4A6C
:104A3000514301600AE0504A1268920303D5564A76
:104A40005143016002E0534A5143016001E0514982
:104A500001604949096811F0F00212094F49545C9C
:104A60000168E14041604449096811F4E062120ABA
:104A70004A49545C4168E14081603F49096811F44A
:104A80006052D20A4549545C4168E140C1603A49EC
:104A9000096811F44042920B4149545CC168B1FB72
:104AA000F4F1016130BC7047C9B2002905D03D491D
:104AB000096808433B49086005E03A49096831EA5A
:104AC0000000384908607047C9B2002905D036494E
:104AD000096808433449086005E03349096831EA48
:104AE0000000314908607047C9B2002905D02F493C
:104AF000096808432D49086005E02C49096831EA36
:104B000000002A4908607047C0B229490860704710
:104B100010B4002200230021C0B24409E4B22200F4
:104B2000012A02D113490B6806E0022A02D1184972
:104B30000B6801E01F490B68C0B210F01F0233FA86
:104B400002F0C00701D5012100E000210800C0B239
:104B500010BC704700210B4A1268C0B2024201D05B
:104B6000012100E000210800C0B27047124908701E
:104B70007047000000100240041002400000FFF8DF
:104B8000FFFFF6FE0810024060004242091002409A
:104B90002010024000127A0000093D0038CC0008C5
:104BA00054CC0008181002401C10024010100240A3
:104BB0004C004242241002400A1002402DE9F0430A
:104BC00085B004000D000020002600275FF00008DB
:104BD0005FF00009A146218A08004CF6FF710840E9
:104BE000E98808432082A0894EF6F3110840A9887D
:104BF0002A8911436A8911430843A081A08A4FF68C
:104C0000FF410840A9890843A08200A8FFF7ECFEF5
:104C10001048814501D1039E00E0029E192000FB4F
:104C200006F029688900B0FBF1F76420B7FBF0F0CB
:104C300000010109642202FB11785FEA0811323198
:104C40006422B1FBF2F111F00F010843208105B09D
:104C5000BDE8F08300380140C9B2002904D0818941
:104C600051F40051818104E081894DF6FF721140B9
:104C70008181704770B400240025002600230300C2
:104C80000800C0B24009C0B2040089B211F01F0090
:104C900005000120A8400600012C01D10C3304E0DE
:104CA000022C01D1103300E01433D2B2002A03D019
:104CB00018683043186002E01868B043186070BC90
:104CC000704700220088084201D0012200E0002243
:104CD0001000C0B2704770B40A0000240023002501
:104CE00000211600F6B27609F6B2350092B212F043
:104CF0001F063300012616FA03F3012D02D1818924
:104D00000B4006E0022D02D1018A0B4001E0818AAE
:104D10000B4092B2140AA4B2012111FA04F40088E3
:104D20000440002B03D0002C01D0012100E0002121
:104D30000800C0B270BC70470022002389B2090A83
:104D40000A00012191400B009BB2D94301807047BA
:104D5000DFF824110843DFF824110860704770B4AD
:104D600000210022002300240F25C678002E34D015
:104D70004249096811F4E061D1F5E061090AD1F115
:104D80000404CD404178A14082782A4011430901B2
:104D9000027812F00302D2B2D2009140027892104F
:104DA000334B53F82220FF23047814F00304E4B2B9
:104DB000E400A3409A4319400A43017889102C4B20
:104DC00043F821200121027812F01F02914000785F
:104DD00040112C4A42F8201009E00121027812F01B
:104DE0001F02914000784011204A42F8201070BC08
:104DF0007047254A114008431E4908607047F0B4C7
:104E00000025FF26002300241C4F3F6817F4E067AD
:104E1000D7F5E0673F0A3C00D4F104073D00E640C7
:104E2000C9B211FA05F4D2B216EA02010C43240108
:104E300010F0C005AD09C0F301263000C0B2C000BB
:104E40008440FF20F6B2F100884003000C4850F87F
:104E5000250098430A4941F82500094850F82500E3
:104E60002043074941F82500F0BC704780E100E08D
:104E700000E400E008ED00E00000FA050CED00E0C1
:104E800018ED00E000E100E080FFFF1F80B5DFF8D3
:104E9000900B0078C00740F19F87DFF8840B006813
:104EA00040084000DFF8781B0860DFF8780B0078D6
:104EB000C00711D4DFF8700B0088401EDFF8681BB4
:104EC000088080B2002807D1DFF8580B006850F046
:104ED0000100DFF8501B0860DFF8480B0068C0F3E2
:104EE0004000002811D1DFF8400B4088401EDFF859
:104EF000381B488080B2002807D1DFF8280B0068F3
:104F000050F00200DFF81C1B0860DFF8180B006887
:104F1000C0F38000002811D1DFF80C0B8088401E00
:104F2000DFF8041B888080B2002807D1DFF8F40A7C
:104F3000006850F00400DFF8EC1A0860DFF8E40ABB
:104F40000068C0F3C000002811D1DFF8DC0AC08877
:104F5000401EDFF8D41AC88080B2002807D1DFF8DD
:104F6000C40A006850F00800DFF8B81A0860DFF8DB
:104F7000B40A0068C0F30010002811D1DFF8A80AB5
:104F80000089401EDFF8A01A088180B2002807D1EE
:104F9000DFF8900A006850F01000DFF8881A086007
:104FA000DFF8800A0068C0F34010002811D1DFF854
:104FB000780A4089401EDFF8701A488180B20028C4
:104FC00007D1DFF8600A006850F02000DFF8541ABB
:104FD0000860DFF8500A0068C0F38010002811D183
:104FE000DFF8440A8089401EDFF83C1A888180B2CD
:104FF000002807D1DFF82C0A006850F04000DFF8E5
:10500000241A0860DFF81C0A0068C0F3C0100028EA
:1050100011D1DFF8140AC089401EDFF80C1AC881CC
:1050200080B2002807D1DFF8FC09006850F080004A
:10503000DFF8F0190860DFF8EC090068C0F3C02061
:10504000002811D1DFF8E009C08A401EDFF8D81926
:10505000C88280B2002807D1DFF8C809006850F480
:105060000060DFF8C0190860DFF8B8090068C0F315
:105070000030002811D1DFF8B009008B401EDFF8A6
:10508000A819088380B2002807D1DFF898090068C2
:1050900050F48050DFF88C19086000200FE0C0B297
:1050A000DFF8381D415C002908D0C0B2DFF82C1DA4
:1050B000415C491EC0B2DFF8242D8154401CC0B2AF
:1050C0000828ECD3DFF8180D006850F00100DFF875
:1050D000101D0860DFF80C0D0088401CDFF8041D6F
:1050E0000880DFF8040D0088401CDFF8FC1C0880F5
:1050F00080B242F21171884207DB0020DFF8E81C21
:1051000008800120DFF8B01D0870DFF8DC0C408853
:10511000401CDFF8D41C488080B242F211718842F2
:1051200007DB0020DFF8C01C48800120DFF8881D65
:105130004870DFF8B40C8088401CDFF8AC1C888015
:1051400080B242F21171884207DB0020DFF8981C20
:1051500088800120DFF8601D8870DFF88C0CC08823
:10516000401CDFF8841CC88080B242F21171884272
:1051700007DB0020DFF8701CC8800120DFF8381D35
:10518000C870DFF8380D0088401CDFF8301D08803B
:1051900080B242F21171884207DB0020DFF81C1D4B
:1051A00008800120DFF8181D0870DFF8100D408816
:1051B000401CDFF8081D488080B242F2117188421D
:1051C00007DB0020DFF8F41C48800120DFF8F01C2A
:1051D0004870DFF8E80C8088401CDFF8E01C88800D
:1051E00080B242F21171884207DB0020DFF8CC1C4C
:1051F00088800120DFF8C81C8870DFF8C00CC088E8
:10520000401CDFF8B81CC88080B242F2117188429D
:1052100007DB0020DFF8A41CC8800120DFF8A01CF9
:10522000C870DFF8C80B0088401CDFF8C01B08807E
:1052300080B233280FDB0020DFF8B01B0880DFF8D6
:10524000B00B006890F00400DFF8A41B086000F0C9
:105250006FFF01F059FADFF89C0B0088401CDFF863
:10526000941B088080B2B0F57A7F1ADD4FF4FA60A3
:10527000DFF8801B0880DFF84C0C0088401CDFF84A
:10528000441C088080B215280BDB0020DFF8341C9A
:105290000880DFF8340C006850F00800DFF8281CA4
:1052A0000860DFF8D40C90F82800800717D5DFF8E5
:1052B0001C0C006850F48070DFF8101C0860DFF8E8
:1052C000100C0088401CDFF8081C088080B2B0F584
:1052D000FA7F1BDD0020DFF8F81B088016E0DFF8FE
:1052E000F00B0088401CDFF8E81B088080B2B0F5A6
:1052F000FA7F0BDD0020DFF8D81B0880DFF8CC0B2D
:10530000006890F48070DFF8C41B0860DFF8A40D1B
:105310000068C0F38000002811D0DFF8600C00881E
:10532000401CDFF8581C088080B2972807DB00205B
:10533000DFF8481C08800120DFF8441C0870DFF803
:10534000740D0068C0F34000002822D0DFF8340C50
:105350000088401CDFF82C1C088080B242F21171DA
:1053600088421ADB0020DFF81C1C0880DFF8440D9F
:10537000006830F00200DFF83C1D0860DFF8F80B31
:1053800090F8300010F07F00DFF8EC1B81F830005F
:1053900003E00020DFF8EC1B0880DFF8DC0B90F85E
:1053A000300000063ED5DFF8E00B0088401CDFF837
:1053B000D81B088080B2652814DB0020DFF8C81BEA
:1053C0000880DFF8F40C006830F40040DFF8E81CD7
:1053D0000860DFF8E40C006830F48050DFF8D81C77
:1053E000086037E0DFF8A40B0088401CDFF89C1B46
:1053F000088080B2B0F5C87F2CDD0020DFF88C1B60
:105400000880DFF8B40C006850F40040DFF8A81CF6
:105410000860DFF8A40C006850F48050DFF8981C96
:10542000086017E00020DFF8601B08800020DFF82C
:105430005C1B0880DFF8800C006850F40040DFF847
:10544000781C0860DFF8700C006850F48050DFF8BA
:10545000681C0860DFF8380B0078002823D1DFF8DB
:10546000340B0088401CDFF82C1B088080B2B0F59C
:105470007A7F18DD0020DFF81C1B0880DFF83C0C69
:105480000088401CDFF8341C0880DFF8341C0988D1
:1054900080B2814207D20020DFF8201C0880012062
:1054A000DFF8EC1A0870DFF81C0C0078002813D124
:1054B000DFF8140C0088401CDFF80C1C088080B258
:1054C00042F21171884207DB0020DFF8FC1B0880E4
:1054D0000120DFF8F01B0870DFF8F00B00780028DF
:1054E00010D1DFF8EC0B0088401CDFF8E41B0880CB
:1054F000DFF8E01B098880B2814203D20120DFF887
:10550000CC1B087000F048FDDFF8CC0B0068C0F33E
:105510004000002821D0DFF8C40B0088401CDFF8D1
:10552000BC1B088080B244F62161884215DB002054
:10553000DFF8A81B0880DFF8400A90F82E0010F072
:105540007F00DFF8341A81F82E00DFF88C0B00683A
:1055500030F00200DFF8801B0860DFF8840B007871
:10556000400617D5DFF87C0B0088401CDFF8741B61
:10557000088080B241F2893188420BDB0020DFF8DD
:10558000641B0880DFF8600B006850F00200DFF851
:10559000581B0860DFF8540B0078002813D1DFF89F
:1055A000500B0088401CDFF8481B088080B242F294
:1055B0001171884207DB0020DFF8341B08800120CE
:1055C000DFF8281B0870DFF8200B0068C0F38000AC
:1055D000002819D0DFF81C0B0088401CDFF8141BD2
:1055E000088080B242F2117188420DDB0020DFF8A2
:1055F000041B0880DFF8800990F8630050F0020077
:10560000DFF8741981F86300DFF86C0990F828005E
:10561000000619D5DFF8E00A0088401CDFF8D81A28
:10562000088080B241F2893188420DDB0020DFF82A
:10563000C81A0880DFF8400990F8280010F07F00B1
:10564000DFF8341981F82800DFF8680A0078C0070D
:1056500049D5DFF8A80A0088401CDFF8A01A0880A6
:1056600080B241F28931884225DB41F28930DFF88E
:105670008C1A0880DFF8000990F82A0050F0010029
:10568000DFF8F41881F82A00DFF8740A0088401C5B
:10569000DFF86C1A088080B265282CDB0020DFF868
:1056A000601A0880DFF8100A006890F48050DFF874
:1056B000081A08601FE0DFF8480A0088401CDFF87D
:1056C000401A088080B2B0F5FA7F14DD0020DFF8C0
:1056D000301A0880DFF8E009006890F48050DFF8A5
:1056E000D819086007E0DFF8D009006850F480504E
:1056F000DFF8C4190860DFF80C0A0068C0F3800006
:1057000000281DD0DFF8000A0078401CDFF8F819E7
:105710000870C0B2042813DB0020DFF8EC19087011
:10572000DFF8E009006830F00400DFF8D8190860FD
:10573000DFF8D009006850F02000DFF8C8190860D1
:10574000DFF8C8090088401CDFF8C019088080B263
:10575000B0F57A7F0CDD0020DFF8B0190880DFF8A3
:105760007809006850F00100DFF86C19086016E055
:10577000DFF89C090088401CDFF89419088080B28B
:10578000B0F5967F0BDD0020DFF884190880DFF884
:105790007409006850F00200DFF868190860DFF84B
:1057A00074090088401CDFF86C19088080B2B0F5DD
:1057B0007A7F0BDD0020DFF85C190880DFF84409F0
:1057C000006850F08000DFF83C190860DFF84809F5
:1057D0000078C0071FD5DFF844090088401CDFF8B7
:1057E0003C19088080B2B0F5FA7F5DDD0020DFF85B
:1057F0002C190880DFF82009007810F0FE00DFF88F
:10580000181908700120DFF8181908700020DFF857
:105810001419087048E0DFF80009007880071FD5E8
:10582000DFF8F8084088401CDFF8F018488080B2A4
:10583000B0F5FA7F38DD0020DFF8E0184880DFF8A7
:10584000D808007810F0FD00DFF8CC1808700420AC
:10585000DFF8CC1808700020DFF8C818087023E0C3
:10586000DFF8B408007840071ED5DFF8B00880885C
:10587000401CDFF8A818888080B2B0F5FA7F13DDED
:105880000020DFF898188880DFF88C08007810F086
:10589000FB00DFF8841808700220DFF88418087015
:1058A0000020DFF880180870DFF86C084078C00727
:1058B0001FD5DFF86808C088401CDFF86018C88072
:1058C00080B2B0F5FA7F5DDD0020DFF85018C880A7
:1058D000DFF84408407810F0FE00DFF83C1848700C
:1058E0000120DFF83C1848700020DFF838180870F5
:1058F00048E0DFF82408407880071FD5DFF81C084F
:105900000089401CDFF81418088180B2B0F5FA7FD6
:1059100038DD0020DFF804180881DFF8FC07407844
:1059200010F0FD00DFF8F01748700420DFF8F017E2
:1059300048700020DFF8EC17087023E0DFF8D80784
:10594000407840071ED5DFF8D4074089401CDFF8B7
:10595000CC17488180B2B0F5FA7F13DD0020DFF864
:10596000BC174881DFF8B007407810F0FB00DFF883
:10597000A81748700220DFF8A81748700020DFF849
:10598000A4170870DFF8A0070078002813D0DFF80C
:105990009C070088401CDFF89417088080B241F211
:1059A0007171884207DB0020DFF880170880002033
:1059B000DFF874170870DFF8FC060068C0F3C02039
:1059C000002827D0DFF8F80C0088401CDFF8F01C16
:1059D000088080B2B0F5FA7F20DD0020DFF8E01CFF
:1059E0000880DFF8D006006830F40060DFF8C416E5
:1059F0000860DFF82407007850F00100DFF818177E
:105A000008700120DFF81C1708700020DFF8B41CB4
:105A1000087003E00020DFF8A81C08800020C6E022
:105A2000800500208405002088030020002809D17B
:105A3000DFF8441591F8411051F00101DFF83825E5
:105A400082F84110012809D1DFF82C1591F8411096
:105A500051F00201DFF8202582F84110022809D117
:105A6000DFF8141591F8411051F00401DFF8082512
:105A700082F84110032809D1DFF8FC1491F8411095
:105A800051F00801DFF8F02482F84110042809D110
:105A9000DFF8E41491F8411051F01001DFF8D82438
:105AA00082F84110052809D1DFF8CC1491F8411093
:105AB00051F02001DFF8C02482F84110062809D1F6
:105AC000DFF8B41491F8411051F04001DFF8A82438
:105AD00082F84110072809D1DFF89C1491F8411091
